:100000000C942A000C9442010C9447000C94470075
:100010000C9447000C9447000C9447000C94470044
:100020000C9447000C9447000C9447000C94470034
:100030000C9447000C9447000C9447000C94470024
:100040000C9447000C9447000C9447000C94470014
:100050000C94470011241FBECFE5D8E0DEBFCDBF12
:1000600010E0A0E6B0E0EEE7FBE002C005900D92E4
:10007000A636B107D9F720E0A6E6B0E001C01D9290
:10008000A437B207E1F70E9459010C94BD050C9406
:10009000000064E482E00E94460163E480E00E9484
:1000A0004A0163E481E00E944A0163E482E00E9425
:1000B0004A0161E480E00E944A0161E481E00E941B
:1000C0004A0161E482E00E944A010E94E5020E9426
:1000D000DD028091670081118EC0809166008111E0
:1000E0002AC080916700811126C081E0809366005C
:1000F0008093610080936000C0E013C0809167002E
:10010000811111C063E482E00E944E0161E480E04D
:100110000E944E0160E070E080E09FE30E943403A3
:10012000CF5FCA3058F363E482E00E94520161E479
:1001300080E00E945201809166008130B1F580918B
:100140006700811132C082E080936100809160007D
:10015000813021F482E08093660004C0811102C0E6
:1001600010926600C0E013C080916700811111C039
:1001700063E481E00E94560161E481E00E9456013F
:1001800060E070E080E09FE30E943403CF5FCA30FC
:1001900058F363E481E00E94520161E481E00E942F
:1001A000520161E482E00E94520180916600823037
:1001B00011F58091670081111EC081E08093660077
:1001C00083E0809361001092600063E480E00E940D
:1001D0004E0161E482E00E944E0160E070E080EA3E
:1001E00090E40E94340363E480E00E94520161E4E1
:1001F00082E00E94520180916700813009F069CF4E
:100200008091610081508230D0F561E480E00E94ED
:100210004E01C0E00FC063E481E00E94560161E43A
:1002200081E00E94560160E070E080E09FE30E9460
:100230003403CF5FCA3078F361E480E00E9452015A
:1002400061E481E00E94520163E481E00E94520176
:1002500063E480E00E944E0161E482E00E944E016E
:1002600060E070E080EA90E40E94340363E480E0A0
:100270000E94520181E0809366001092600010920B
:10028000670027CF81E080936700089540E00E94D7
:100290005E01089541E00E945E01089541E00E94E0
:1002A000FB01089540E00E94FB0108950E9498021E
:1002B00008950E94490080E090E00895623469F159
:1002C00018F4613441F08DC0633409F448C06434DB
:1002D00009F466C086C041110FC04AB321E030E086
:1002E000B90102C0660F771F8A95E2F7CB018095AE
:1002F00084238ABB81E00895413009F074C04AB379
:1003000021E030E0B90102C0660F771F8A95E2F75D
:10031000CB01842B8ABB81E0089541110FC047B304
:1003200021E030E0B90102C0660F771F8A95E2F73D
:10033000CB018095842387BB81E00895413009F08B
:1003400054C047B321E030E0B90102C0660F771F07
:100350008A95E2F7CB01842B87BB81E00895411198
:100360000FC044B321E030E0B90102C0660F771F2F
:100370008A95E2F7CB018095842384BB81E00895C0
:100380004130A9F544B321E030E0B90102C0660F65
:10039000771F8A95E2F7CB01842B84BB81E0089517
:1003A00041110FC041B321E030E0B90102C0660F36
:1003B000771F8A95E2F7CB018095842381BB81E08A
:1003C00008954130B1F441B321E030E0B90102C0F9
:1003D000660F771F8A95E2F7CB01842B81BB81E002
:1003E000089581E0089582E0089582E0089582E012
:1003F000089582E00895623469F118F4613441F09F
:100400008DC0633409F448C0643409F466C086C002
:1004100041110FC04BB321E030E0B90102C0660FBB
:10042000771F8A95E2F7CB01809584238BBB81E00F
:100430000895413009F074C04BB321E030E0B901B8
:1004400002C0660F771F8A95E2F7CB01842B8BBB26
:1004500081E0089541110FC048B321E030E0B901B7
:1004600002C0660F771F8A95E2F7CB01809584233F
:1004700088BB81E00895413009F054C048B321E0C1
:1004800030E0B90102C0660F771F8A95E2F7CB0111
:10049000842B88BB81E0089541110FC045B321E052
:1004A00030E0B90102C0660F771F8A95E2F7CB01F1
:1004B0008095842385BB81E008954130A9F545B33B
:1004C00021E030E0B90102C0660F771F8A95E2F79C
:1004D000CB01842B85BB81E0089541110FC042B34D
:1004E00021E030E0B90102C0660F771F8A95E2F77C
:1004F000CB018095842382BB81E008954130B1F423
:1005000042B321E030E0B90102C0660F771F8A953F
:10051000E2F7CB01842B82BB81E0089581E008954E
:1005200082E0089582E0089582E0089582E00895CF
:100530006234B9F018F4613431F03DC06334F9F03D
:10054000643459F138C04BB321E030E0B90102C046
:10055000660F771F8A95E2F7CB0184278BBB81E07A
:10056000089548B321E030E0B90102C0660F771F5B
:100570008A95E2F7CB01842788BB81E0089545B3D3
:1005800021E030E0B90102C0660F771F8A95E2F7DB
:10059000CB01842785BB81E0089542B321E030E0A0
:1005A000B90102C0660F771F8A95E2F7CB01842755
:1005B00082BB81E0089582E00895789485B78360D6
:1005C00085BF8BB780648BBF089513BE12BE81E0D8
:1005D0000895AC01109273001092720061307105A1
:1005E00029F483B7816083BF82E033C0683071052E
:1005F00029F483B7826083BF82E02BC06034710529
:1006000039F483B7836083BF82E023C084E021C0D4
:10061000611581E0780729F483B7846083BF82E0A5
:1006200018C06115744091F783B7856083BF82E07D
:1006300010C008B600FEFDCF98B7916098BF20911A
:100640007200309173002F5F3F4F309373002093FF
:10065000720020917200309173002417350748F31F
:10066000089513BE83E008958F929F92AF92BF9238
:10067000CF92DF92EF92FF924B015C01C09062003B
:10068000D0906300E0906400F090650020E034E2D8
:1006900044E759E4C701B6010E94F90360936E0074
:1006A00070936F00809370009093710020E030E0B1
:1006B00040E853E40E9450059B01AC016093680040
:1006C0007093690080936A0090936B00C501B40138
:1006D0000E94F9030E94DD030E946B044B015C0140
:1006E00070936D0060936C0020E030E040E85FE3C1
:1006F000C701B6010E94F403811109C061E070E0F6
:10070000C4010E94E9020E94310381E04DC020E053
:1007100030E040E051E4C701B6010E94F4038111CA
:1007200009C068E070E0C4010E94E9020E94310340
:1007300081E03AC020E030E040E852E4C701B60171
:100740000E94F403811109C060E470E0C4010E94BA
:10075000E9020E94310381E027C020E030E040E858
:1007600053E4C701B6010E94F403811109C060E09F
:1007700071E0C4010E94E9020E94310381E014C0CB
:1007800020E030E040E854E4C701B6010E94F403E1
:10079000811109C060E074E0C4010E94E9020E9476
:1007A000310381E001C084E0FF90EF90DF90CF90B3
:1007B000BF90AF909F908F9008950E94310590F068
:1007C0009F3748F4911116F40C944A0560E070E0EC
:1007D00080E89FE3089526F01B16611D711D811DA1
:1007E0000C94C4040C94DF040E949A0408F481E081
:1007F00008950E940D040C94FE040E94F70458F022
:100800000E94F00440F029F45F3F29F00C94BE04EC
:1008100051110C944A050C94ED040E940F0568F3E5
:100820009923B1F3552391F3951B550BBB27AA27A9
:1008300062177307840738F09F5F5F4F220F331FE3
:10084000441FAA1FA9F335D00E2E3AF0E0E832D0AB
:1008500091505040E695001CCAF72BD0FE2F29D0AE
:10086000660F771F881FBB1F261737074807AB0780
:10087000B0E809F0BB0B802DBF01FF2793585F4FF5
:100880003AF09E3F510578F00C94BE040C944A0552
:100890005F3FE4F3983ED4F3869577956795B795D7
:1008A000F7959F5FC9F7880F911D9695879597F9E2
:1008B0000895E1E0660F771F881FBB1F621773075B
:1008C0008407BA0720F0621B730B840BBA0BEE1F70
:1008D00088F7E09508950E94170588F09F5798F0D3
:1008E000B92F9927B751B0F0E1F0660F771F881F35
:1008F000991F1AF0BA95C9F714C0B13091F00E944F
:100900004905B1E008950C944905672F782F882791
:10091000B85F39F0B93FCCF3869577956795B39575
:10092000D9F73EF490958095709561957F4F8F4FE4
:100930009F4F0895990F0008550FAA0BE0E8FEEFAE
:1009400016161706E807F907C0F012161306E40793
:10095000F50798F0621B730B840B950B39F40A268C
:1009600061F0232B242B252B21F408950A2609F46A
:10097000A140A6958FEF811D811D089597F99F676E
:1009800080E870E060E00895882371F4772321F017
:100990009850872B762F07C0662311F499270DC036
:1009A0009051862B70E060E02AF09A95660F771FD1
:1009B000881FDAF7880F9695879597F908959F3FD6
:1009C00031F0915020F4879577956795B795880F0A
:1009D000911D9695879597F908959FEF80EC08955E
:1009E00000240A941616170618060906089500240E
:1009F0000A9412161306140605060895092E039488
:100A0000000C11F4882352F0BB0F40F4BF2B11F4FB
:100A100060FF04C06F5F7F4F8F4F9F4F089557FD5A
:100A20009058440F551F59F05F3F71F04795880F5C
:100A300097FB991F61F09F3F79F0879508951216F3
:100A400013061406551FF2CF4695F1DF08C016169F
:100A500017061806991FF1CF869571056105089450
:100A600008950E941705A0F0BEE7B91788F4BB27C8
:100A70009F3860F41616B11D672F782F8827985F6E
:100A8000F7CF869577956795B11D93959639C8F3FD
:100A90000895E894BB2766277727CB0197F9089537
:100AA0000E9463050C94FE040E94F00438F00E943A
:100AB000F70420F0952311F00C94BE040C94ED047F
:100AC00011240C944A050E940F0570F3959FC1F301
:100AD000950F50E0551F629FF001729FBB27F00DEC
:100AE000B11D639FAA27F00DB11DAA1F649F662741
:100AF000B00DA11D661F829F2227B00DA11D621F90
:100B0000739FB00DA11D621F839FA00D611D221F49
:100B1000749F3327A00D611D231F849F600D211D2D
:100B2000822F762F6A2F11249F5750409AF0F1F0B0
:100B300088234AF0EE0FFF1FBB1F661F771F881F19
:100B400091505040A9F79E3F510580F00C94BE048F
:100B50000C944A055F3FE4F3983ED4F3869577956D
:100B60006795B795F795E7959F5FC1F7FE2B880FBF
:0E0B7000911D9695879597F90895F894FFCFFB
:060B7E00010100008043AC
:00000001FF
